:020000040000fa
:080000000002040000000000f2
:020000040000fa
:040008000c040000e4
:020000040000fa
:04000c000c040000e0
:020000040000fa
:040010000c040000dc
:020000040000fa
:040014000c040000d8
:020000040000fa
:040018000c040000d4
:020000040000fa
:04001c000c040000d0
:020000040000fa
:040020000c040000cc
:020000040000fa
:040024000c040000c8
:020000040000fa
:040028000c040000c4
:020000040000fa
:04002c00dc020000f2
:020000040000fa
:040030000c040000bc
:020000040000fa
:040034000c040000b8
:020000040000fa
:040038000c040000b4
:020000040000fa
:04003c000c040000b0
:020000040000fa
:040040000c040000ac
:020000040000fa
:040044000c040000a8
:020000040000fa
:040048000c040000a4
:020000040000fa
:04004c000c040000a0
:020000040000fa
:040050000c0400009c
:020000040000fa
:04005400c4030000e1
:020000040000fa
:04005800e8030000b9
:020000040000fa
:04005c000c04000090
:020000040000fa
:040060000c0400008c
:020000040000fa
:040064000c04000088
:020000040000fa
:040068000c04000084
:020000040000fa
:04006c000c04000080
:020000040000fa
:040070000c0400007c
:020000040000fa
:040074000c04000078
:020000040000fa
:040078000c04000074
:020000040000fa
:04007c000c04000070
:020000040000fa
:040080000c0400006c
:020000040000fa
:040084000c04000068
:020000040000fa
:040088000c04000064
:020000040000fa
:04008c000c04000060
:020000040000fa
:040090000c0400005c
:020000040000fa
:040094000c04000058
:020000040000fa
:040098000c04000054
:020000040000fa
:04009c000c04000050
:020000040000fa
:0400a0000c0400004c
:020000040000fa
:0400a4000c04000048
:020000040000fa
:0400a8000c04000044
:020000040000fa
:0400ac000c04000040
:020000040000fa
:0400b0000c0400003c
:020000040000fa
:0400b4000c04000038
:020000040000fa
:0400b8000c04000034
:020000040000fa
:0400bc000c04000030
:020000040000fa
:0400c0000c0400002c
:020000040000fa
:0400c4000c04000028
:020000040000fa
:0400c8000c04000024
:020000040000fa
:0400cc000c04000020
:020000040000fa
:0400d0000c0400001c
:020000040000fa
:0400d4000c04000018
:020000040000fa
:0400d8000c04000014
:020000040000fa
:0400dc000c04000010
:020000040000fa
:0400e0000c0400000c
:020000040000fa
:0400e4000c04000008
:020000040000fa
:0400e8000c04000004
:020000040000fa
:0400ec000c04000000
:020000040000fa
:0400f0000c040000fc
:020000040000fa
:0400f4000c040000f8
:020000040000fa
:0400f8000c040000f4
:020000040000fa
:0400fc000c040000f0
:020000040000fa
:040100000c040000eb
:020000040000fa
:040104000c040000e7
:020000040000fa
:040108000c040000e3
:020000040000fa
:04010c000c040000df
:020000040000fa
:040110000c040000db
:020000040000fa
:040114000c040000d7
:020000040000fa
:040118000c040000d3
:020000040000fa
:04011c000c040000cf
:020000040000fa
:040120000c040000cb
:020000040000fa
:040124000c040000c7
:020000040000fa
:040128000c040000c3
:020000040000fa
:04012c000c040000bf
:020000040000fa
:040130000c040000bb
:020000040000fa
:040134000c040000b7
:020000040000fa
:040138000c040000b3
:020000040000fa
:04013c000c040000af
:020000040000fa
:040140000c040000ab
:020000040000fa
:040144000c040000a7
:020000040000fa
:040148000c040000a3
:020000040000fa
:04014c000c0400009f
:020000040000fa
:040150000c0400009b
:020000040000fa
:040154000c04000097
:020000040000fa
:040158000c04000093
:020000040000fa
:04015c000c0400008f
:020000040000fa
:040160000c0400008b
:020000040000fa
:040164000c04000087
:020000040000fa
:040208000c040000e2
:020000040000fa
:04020c000c040000de
:020000040000fa
:040210000c040000da
:020000040000fa
:040214000c040000d6
:020000040000fa
:040218000c040000d2
:020000040000fa
:04021c000c040000ce
:020000040000fa
:040220000c040000ca
:020000040000fa
:040224000c040000c6
:020000040000fa
:040228000c040000c2
:020000040000fa
:04022c00dc020000f0
:020000040000fa
:040230000c040000ba
:020000040000fa
:040234000c040000b6
:020000040000fa
:040238000c040000b2
:020000040000fa
:04023c000c040000ae
:020000040000fa
:040240000c040000aa
:020000040000fa
:040244000c040000a6
:020000040000fa
:040248000c040000a2
:020000040000fa
:04024c000c0400009e
:020000040000fa
:040250000c0400009a
:020000040000fa
:04025400c4030000df
:020000040000fa
:04025800e8030000b7
:020000040000fa
:04025c000c0400008e
:020000040000fa
:040260000c0400008a
:020000040000fa
:040264000c04000086
:020000040000fa
:040268000c04000082
:020000040000fa
:04026c000c0400007e
:020000040000fa
:040270000c0400007a
:020000040000fa
:040274000c04000076
:020000040000fa
:040278000c04000072
:020000040000fa
:04027c000c0400006e
:020000040000fa
:040280000c0400006a
:020000040000fa
:040284000c04000066
:020000040000fa
:040288000c04000062
:020000040000fa
:04028c000c0400005e
:020000040000fa
:040290000c0400005a
:020000040000fa
:040294000c04000056
:020000040000fa
:040298000c04000052
:020000040000fa
:04029c000c0400004e
:020000040000fa
:0402a0000c0400004a
:020000040000fa
:0402a4000c04000046
:020000040000fa
:0402a8000c04000042
:020000040000fa
:0402ac000c0400003e
:020000040000fa
:0402b0000c0400003a
:020000040000fa
:0402b4000c04000036
:020000040000fa
:0402b8000c04000032
:020000040000fa
:0402bc000c0400002e
:020000040000fa
:0402c0000c0400002a
:020000040000fa
:0402c4000c04000026
:020000040000fa
:0402c8000c04000022
:020000040000fa
:0402cc000c0400001e
:020000040000fa
:0402d0000c0400001a
:020000040000fa
:0402d4000c04000016
:020000040000fa
:0402d8000c04000012
:020000040000fa
:0402dc000c0400000e
:020000040000fa
:0402e0000c0400000a
:020000040000fa
:0402e4000c04000006
:020000040000fa
:0402e8000c04000002
:020000040000fa
:0402ec000c040000fe
:020000040000fa
:0402f0000c040000fa
:020000040000fa
:0402f4000c040000f6
:020000040000fa
:0402f8000c040000f2
:020000040000fa
:0402fc000c040000ee
:020000040000fa
:040300000c040000e9
:020000040000fa
:040304000c040000e5
:020000040000fa
:040308000c040000e1
:020000040000fa
:04030c000c040000dd
:020000040000fa
:040310000c040000d9
:020000040000fa
:040314000c040000d5
:020000040000fa
:040318000c040000d1
:020000040000fa
:04031c000c040000cd
:020000040000fa
:040320000c040000c9
:020000040000fa
:040324000c040000c5
:020000040000fa
:040328000c040000c1
:020000040000fa
:04032c000c040000bd
:020000040000fa
:040330000c040000b9
:020000040000fa
:040334000c040000b5
:020000040000fa
:040338000c040000b1
:020000040000fa
:04033c000c040000ad
:020000040000fa
:040340000c040000a9
:020000040000fa
:040344000c040000a5
:020000040000fa
:040348000c040000a1
:020000040000fa
:04034c000c0400009d
:020000040000fa
:040350000c04000099
:020000040000fa
:040354000c04000095
:020000040000fa
:040358000c04000091
:020000040000fa
:04035c000c0400008d
:020000040000fa
:040360000c04000089
:020000040000fa
:040364000c04000085
:020000040000fa
:100400002fd720000e7f24000e018800000000007e
:10041000000020000000e000020032000001200087
:100420002002880014000700fd0007000000e00023
:1004300003003a00a07224000100200002003700ef
:100440000000200001002000810f70000100320038
:1004500014000700000020000000e000020032004d
:100460000000020000000000bc3d0200000000008f
:100470000040da000000fe004440a900403d210099
:100480000000e0000300320000002000a00188000e
:100490004440a800000006008a1f78008b1f7800e7
:1004a0000000060091018800800478000000eb0045
:1004b0001a003700e284440032a0b4009905ba0063
:1004c000e284440032a0b4009906ba00e2844400f9
:1004d00032a0b4000006eb00476fde00fd07b2005b
:1004e000636ce10003003a00ebff07000000eb0043
:1004f0000a003700606ce10004003a00005deb0088
:100500008b05e900fdff3e00040037006168e10053
:10051000010032000086eb000b00070019c7ba008b
:100520001905ba000e04e00003003a000a00e000da
:10053000e0ff3a0000000600fe07b2009e018800be
:100540008a047800f5ff3700395dba008b05e900b1
:100550000c003200295dba008b05e900080032006a
:100560000c00e00003003a00e284440032a0b40032
:10057000f5ff370019ddba008b05e900faff3a00f4
:100580008904e800e184440032a0b40000000600c1
:10059000ca3f0400000000004e3f040000000000bd
:1005a0002c3f040000000000bc3f040000000000dd
:1005b000aa3f0400000000003600f800809fbe0043
:1005c000829fbe00849fbe00869fbe000a00fa0084
:1005d0008420a900000a800030408800204080006c
:1005e0000000e00004003a0030408000761e070062
:1005f00050408800110037003140800020408000ca
:10060000808f50000600360031408000204080007e
:10061000008050006c1e0700504088000700370023
:100620006108800020408000008050003140800040
:1006300001004000641e07005040880008c8bf0049
:100640000004e0002000320051408000200420001f
:10065000808f50000b003600514080007005200054
:10066000808f500007003e00604080008000400006
:10067000a0ce2000008040008000eb000108780040
:100680000e00370051408000e0062000808f5000af
:100690000a0036005140800010082000808f500072
:1006a00006003e006040800080004000a0ce200098
:1006b00000804000110020000108780060408000a8
:1006c0000000e80060408800514080006009200080
:1006d000808f50000600360051408000900a2000b4
:1006e000808f500002003e0010c0b30008e8b70041
:1006f000304080002040880061408000800220005f
:10070000808f500019003a000e007800411e07004b
:100710000e00780001ce2000b0187800a0107800fc
:10072000e480400064004000b0187800a010780019
:10073000e480400064004000900878008180e80078
:100740000080e80002003700000a80003040880086
:10075000100a8000680060000000e000faff3a0024
:100760000c28ef000428ef000628ef000080fa00b4
:100770004f03be004f02be004f01be004f00be003f
:100780003600f900004006003600f800809fbe00e9
:10079000829fbe00849fbe00869fbe000200fa00ba
:1007a00030118000004f78001e4078006420070060
:1007b0008560a9000080fa004f03be004f02be0012
:1007c0004f01be004f00be003600f9000040060099
:1007d0003600f800809fbe00829fbe00849fbe004e
:1007e000869fbe000200fa00c0200700004f78007c
:1007f0001e80fb00201188008580a9000080fa007f
:100800004f03be004f02be004f01be004f00be00ae
:100810003600f900004006000040da000000fe004b
:10082000000005000001be00220007000470a700c0
:1008300003f0a1006509b100160032000d0035007b
:100840006828e10006003500f0ff2f00f1ff2700c7
:100850000300e00013003b00010028000000050039
:1008600000004000818048008502e900fcff3a005a
:1008700008003700f88f420002003c008000eb00c7
:10088000000005008100d1000080d3008502e8004f
:10089000fcff3a000300e00002003b006000100093
:1008a000e0801800000006004f89de008201780019
:1008b00005023700c70ade00f107b200f50fb200eb
:1008c00008003200e1cf4200020032000170a000b7
:1008d00024000500810f70000100320004080500ab
:1008e00044000500810f700002003a00140005006a
:1008f0008502e9000000400081c04800fcff3b0089
:100900000170a0002400050007f82700078361009c
:100910000638e10004003a00f707200087836100f1
:100920008703710001003a0003f0a200889fbe0017
:100930008a9fbe008c9fbe00470ade000480a10093
:10094000c71ade000580a1000700280007856000a7
:1009500087856100f70f20000720e1009e0032002c
:100960000728e1009c003200010678000400e00046
:10097000b4003200f7072000878060000170a000fb
:100980000500e000c0003200f70720008781610009
:100990000370a000050652000f003a000b50e10062
:1009a0000b0032000308e10002003a000200e100ff
:1009b0007e0032000204500083845800040031009d
:1009c0000001fd008101fd008402fd008a05fd009b
:1009d0006044b800210037000520e10005003d001b
:1009e0000001fd008101fd008402fd008a05fd007b
:1009f000050652007a60e100050035000170a10093
:100a00004722dd00848070008a8070006300370018
:100a10006044b800ef02660007ff2f00070666007b
:100a20000500e00006003400f08312008714dd00aa
:100a30000511de00071bdd00060171008519de00cf
:100a40007060e10005003500090478008204780038
:100a5000030178008001eb00700656000b50e100a6
:100a600003003a0002004000838048000400370081
:100a700060041400e0841c000200580083805800c9
:100a80000188a300060032008100d1000080d3005d
:100a90008984d3000884d3000402e80027003700cb
:100aa0000178a30025003a000100e00003003200b5
:100ab0008186cf00698656000a0037008c0020002e
:100ac0000000e00004003a00090078008804780083
:100ad0000004eb00700252008086cf000d06460035
:100ae0000c06e9007060e100060035008000780027
:100af00009007800880478000004eb0070065600b6
:100b0000700252000c00e0000c0034008c08dd0084
:100b1000f00316000703de00868070000c00dd0085
:100b2000074bde00060070008c4cdd000743de0042
:100b3000868474000c44dd000c0252006120e10048
:100b400020003500610160000700280087816400f3
:100b5000f7ff270087836400070374000300e000a9
:100b60000600320082037300040032000000e80037
:100b7000e08048000188a3000e003a00f70f200033
:100b80000720e1004a003d000170a1004722dd007e
:100b9000810072008a8070000000be004f06be0017
:100ba0004f05be004f04be00000006006000b80004
:100bb000faff37008100d1000080d3000402e80072
:100bc000eeff37000401780089017400c2000700bd
:100bd0008a807000f1ff37001801070007027800d3
:100be0000001fd008101fd0014010700870278006b
:100bf000850372000778a300040032000001fd00a5
:100c00008101fd0027010700e4ff37008503620032
:100c10000768a300080032000b50e1000300320017
:100c2000f0ff2f00f1ff2700dcff37000001fd007f
:100c30008101fd00d9ff37000468a300d7ff32000f
:100c4000faff3700f8ff2700888360000b003a00a6
:100c50000000e00009003a0083036400828373000f
:100c6000020032000200be00ccff37000b50e10052
:100c7000ceff3a000200be00c8ff3700140020007b
:100c8000810064003eff3700f8ff27008883610081
:100c900004003a000200e00002003a008c007800f4
:100ca000beff3700150020008301640039ff3700c4
:100cb00001f827000000200081007500b7ff370011
:100cc000038368000700280007036300470ade006b
:100cd0000480a100c71ade000580a100f70f2000e4
:100ce0000720e100420032000728e1004000320006
:100cf000889fbe008a9fbe008c1f7800f107b2005b
:100d0000f307b2000400e000640032000170a000ac
:100d10000500e000680032000370a0008505420075
:100d2000eb07b1000204b8000302b8008484440059
:100d300060854a00020ab800848444000a854a009b
:100d4000030ab80004054500040033000804d0007d
:100d50008984d2000a85d2008b05e9006158e10040
:100d60003d00350002102000090161000308200049
:100d700089816100f707200087836400088673007b
:100d8000c84cde00c853dd00878474004855de007f
:100d90000300e00006003200820376000400320007
:100da0008904e80060054d000a88a3000c003a00a1
:100db000f70f20000758e10044003d000a70a10031
:100dc000c75ddd000a8575008a00730009007800a0
:100dd0004f0678004f05be004f04be00000006001d
:100de0000a05d1008984d3008b05e800f0ff3700a5
:100df000881f78000604780090000700070278003a
:100e00000001fd008101fd008c00070087027800d1
:100e1000850372000778a300050032000001fd0081
:100e20008101fd009f0007004f04780000000600cc
:100e3000850372000748a30003003200f0ff2f0073
:100e4000f1ff2700f8ff37000000200001f827001d
:100e500088807000f4ff3700880178004848dd0082
:100e6000808171004848de00c850dd00010070003c
:100e7000c850de00060478000b0178001600070059
:100e800088807000d2ff37000500e00005003200c6
:100e9000170020003a0007009dff37008103700013
:100ea000f9ff3a00860078004f0678004f05be0033
:100eb0004f04be000000050083037100f9ff3200fb
:100ec000270020002e00070094ff370001f82700bc
:100ed00086807000f4ff37000100e0002600320039
:100ee000610111007810e10023003c006022b8008d
:100ef0007010e100040035008002780001007800e5
:100f00008000eb00700151000200e0000900340095
:100f100070031100062add00822ade008603dd0050
:100f2000878272000200de00860bdd000700700081
:100f30008208de0084817100f4ff270004826200d1
:100f400084817100040028008482620061026000d4
:100f500005f0a600000006000482710007003200c0
:100f60000000e800e0804800000006000002be002b
:100f70006000b800efff37006000b8000000060016
:100f8000889fbe000004eb006138e10016003a00c3
:100f90000100e00008003a00c800de004800dd0063
:100fa000880020000100e00003003a00c800de00d5
:100fb0004800dd00680444008184cf00e9845400c7
:100fc000060034008908dd00f08314008703de008a
:100fd000878070000900dd000904440061021400ec
:100fe0004f04be00000006000300e00008003a00c5
:100ff000c811de004811dd00880020000300e00079
:1010000003003a00c811de004811dd006804440006
:101010008384cf00e9845400060034008919dd0080
:10102000f08314008713de00878171000911dd0051
:1010300009044400e1021400e9ff37002700200002
:1010400001f0a70017002000470bde00f60fb200ea
:10105000040032000643e8000a0032004702b300f1
:101060000000060001037800f607b20006037000d6
:1010700002003a000703b300000006008702b30035
:101080000000060001037800f607b20006037000b6
:10109000020032000770a000000006000760a000f8
:1010a000000006000478a300040032000578a300c5
:1010b000030032000168a30001003a000200be00f4
:1010c0000160a00000000600881f7800030478007b
:1010d0000300e00007003d0060001000e080180001
:1010e00060011900e081190002003b0001f02d00b1
:1010f000030037000400070008f0a70001f0a0007b
:101100004f04780000000600889fbe008a9fbe0042
:101110000082700004027100048271002600320017
:101120000004be000200be006011b8006b09200080
:10113000950220000182cf000a0039000541b1006c
:101140000082cf00070039000541b1000982cf00bd
:10115000040039000541b1000882cf0001003900c8
:101160000541b10005425200120032000a003b0066
:1011700082817100610164008100d1000080d30090
:101180008984d3000884d3008b05e8000442e8007a
:10119000f7ff3a00070037000804440089844c0038
:1011a00000004800818048008b05e9000442e90006
:1011b000f9ff3a00030007004f05be004f04be00d0
:1011c0000000060081002000618055000b003d00fa
:1011d0000b00200061fe2f000100e1001d00340023
:1011e00082817100610164008904d1000884d30008
:1011f0000000e800faff3a0071002000610064007e
:101200000300700002006000090032006104440025
:10121000e0844c000988a500050032008b05e80039
:101220006808e10002003a008904d1000884d30074
:10123000f20f20000258e10005003d00c75ddd000f
:10124000f907b200898075000800780000000600e8
:101250000bf827008b007800000005004f02b0005b
:10126000889fbe008a9fbe008c9fbe008e1f7800a4
:101270000005be000204be00b2af9f00c3af9f00d6
:10128000b2b79f00c3b79f00cfae97000df0a1008b
:1012900002067800e00f5600e08f5e00c0033200c7
:1012a000faaf9f008bb79f000000200001f82300d9
:1012b000800f5500818f5d00b90332008fb2970017
:1012c00005f0a1007faa970094b79f00a5b79f00e3
:1012d0000000200001f82700800f5200818f5a0083
:1012e00003003c00800f5600818f5e000400340034
:1012f0000a01be000800be008cfd0700af033700e6
:101300006033b8007fa997008fb19700e00f5100bc
:10131000e08f590029003d00260020000700200032
:10132000f0ff2f00f1b72400800f5600818f5e0080
:1013300022003c006033b800f0ff2f00f1f72300db
:10134000800f5600818f5e003300340047e8de00d6
:10135000cfe8de00f007b1000180b1007701100096
:101360000c00be00820178008301e9000300330015
:101370008180d1000080d300fbff37000003be0056
:10138000020778000e07e90003003300060343005c
:1013900087834b00fbff37000601be006033b800b7
:1013a0008c0f51008d8f59001b003a0061036000c3
:1013b00062031300e0831b001700370000002000c9
:1013c00001f82700800f5600818f5e0012003a005e
:1013d0000000200001f82300800f5200818f5a0086
:1013e0006f033200060034003fb09700cfb0970083
:1013f000e00f5000e08f580071033d006b03370091
:101400003fb19700cfb19700e00f5100e08f590036
:1014100066033d00690037000000200001f823004a
:10142000800f5600818f5e0009003a003fb297009e
:10143000cfb29700e00f5200e08f5a005d033d00ed
:101440000a01be000000200001f82300550037000b
:1014500000002000010024003fb19700cfb19700a9
:10146000800f5100818f590003003a000a01be002d
:101470000a00be00480337000000200001f02300ee
:101480003fb19700cfb19700800f5100818f590075
:1014900008003a007fa897008fb09700e00f500037
:1014a000e08f5800030035000a00be0075030700f6
:1014b000420337000a00be00f4b79f0085bf9f00bb
:1014c000d6b79f00e7b79f00f8030700020020008f
:1014d00003f827007fb297008fba97005fb3970099
:1014e000efb39700820f5200838f5a00080032003a
:1014f000e00f5200e08f5a00050032000200200089
:1015000003f82300820f5200838f5a002d003a0007
:101510003fb19700cfb19700e00f5100e08f590025
:101520000c003d000001be000000200001f8230077
:10153000f4b79f0085bf9f00d6b79f00e7b79f0015
:10154000350a07007fb297008fba97005fb3970004
:10155000efb397007fa997008fb19700e00f51007c
:10156000e08f590015033d000200200003082c0005
:1015700004024100858249000402730085827300e1
:10158000e00f5200e08f5a0008003a0012022000db
:10159000726b88000001be000200be00dafc07008a
:1015a0000001be001c0a070004033700e10f5300ce
:1015b000e08f5b0001033a000004be0009f0a200c6
:1015c000ff0237007fa997008fb19700e00f51000d
:1015d000e08f59000d003d00e00f5300e08f5b00ed
:1015e00004003a0010022000706b88000a01be005f
:1015f000e9ff3700e10f5300e08f5b000800320085
:101600000600200007f82300070037000200200032
:1016100003f82300f2af9f0083b79f000400370058
:101620000600200007f82b00f6af9f0087b79f0049
:101630000200200003d02400820f5600838f5e003a
:101640005600340072ff2f00f3f72300820f520080
:10165000838f5a0006003c003fb09700cfb0970040
:10166000e00f5000e08f580004023d00e201370017
:101670007200200003f82300820f5200838f5a006b
:10168000060034003fb19700cfb19700e00f510042
:10169000e08f5900d8013c00f8013700020020001b
:1016a00003f8230098fc07000005be0002a02a00f2
:1016b00083fb230082fd070090b79f00a1b79f0026
:1016c00002572a00c36e23000a00be007cfd0700fb
:1016d0000002be000a01be000a00be00f4b79f006f
:1016e00085bf9f0076fd07000006be0002002000b7
:1016f00003e823000a00be0071fd07000001be00e0
:10170000b0aa2a00a1ea23007ffc07000001be0066
:101710000a00be006afd07000001be0000002000b4
:1017200001f0230078fc07000001be000c00be00a1
:1017300063fd0700b2a32a0083fb230060fd0700be
:101740000001be007fb297008fba97000400be0070
:101750006dfc07000005be000001be001fb0970031
:10176000afb0970071fc07000001be008300780055
:1017700004002f00020062000003be00b6b79f0005
:10178000c7b79f001fb19700afb197005efc07007d
:101790000001be000a00be00560137006011b8000b
:1017a000f6ff2f00f7072000860f5200878f5a00a0
:1017b00007003c000200200003b8240040fd0700a1
:1017c00090b79f00a1b79f0082fe2f00f3ff2f006c
:1017d000f207b1000380b1002fb2970047a0de00ee
:1017e00084027800cfa8de00020340008383480013
:1017f00096af9f00a7af9f0085007800f107b20069
:101800001fb097000200200003f8230002027000be
:101810008382700094b79f00a5b79f006033b80023
:10182000d6af9f00e7af9f0012472c00c3012000f6
:10183000820f5000838f58001a00340012002000dd
:1018400003002000d2af9f00e3af9f00623d2b005a
:10185000d3052000820f5000838f58001100340000
:101860001faa9700afaa970061024200e0824a00d7
:1018700094af9f00a5af9f000000200001f82f004b
:101880001fb39700afb3970006034000878348005b
:1018900096b79f00a7b79f006000b800d0af9f0029
:1018a000e1af9f00dfa89700c208dd0081af9f0075
:1018b00060d52000010040001005be000a01be00f6
:1018c0001fb09700afb097000ffc07000006be00e6
:1018d0000a01be001fb09700afb0970013fc0700cd
:1018e0000001be000000200001f823004a090700a3
:1018f0000002be000001be000c00be00f4b79f0055
:1019000085bf9f00eefc07000003be000e002f0005
:1019100081017800c3b79f0000016700b2b79f0044
:101920005fa89700efa89700c500dd000000200029
:10193000d0af9f00e1af9f00000020000104200015
:101940005fa99700efa9970002014000838148003a
:10195000d2af9f00e3af9f001fb09700afb09700da
:101960008181d1000081d3008300780001d0a100e3
:101970000200670001d0a0005fa99700efa99700bf
:101980000201400083814800d2af9f00e3af9f0077
:101990005fa99700efa997003fb09700cfb09700dd
:1019a000d6b79f00e7b79f00c5fc07000001be0047
:1019b0000c00be00d4fb07000006be000a01be00fa
:1019c0005fa89700efa89700cffb07000001be00bb
:1019d0001fb09700afb09700cbfb07000001be001f
:1019e0003fb09700cfb09700b5fc07000001be00e4
:1019f0000c00be00c4fb07000001be007fb29700d0
:101a00008fba97000400be00adfc07000006be00c0
:101a10005fb39700efb397000601be000600be005b
:101a2000a7fc07000005be000001be00a4fc0700e3
:101a30000002be0022142f0033e523000a00be007e
:101a4000f4b79f0085bf9f009dfc0700522523002f
:101a5000c3e62300b5fb07000001be000a00be007c
:101a600097fc070052302a00b3e82300affb0700c1
:101a70000001be000a00be0091fc0700b2aa2a00c5
:101a8000a3ea2300a9fb07000001be000a00be0074
:101a90008bfc070072db2600b3ed2300a3fb0700dd
:101aa0000001be000a00be0085fc0700a2992900c3
:101ab00093f123009dfb07000001be007fb2970059
:101ac0008fba97000400be007dfc07000005be0031
:101ad0005fb39700efb397000601be003fb09700d9
:101ae000cfb0970091fb07000001be000c00be00c4
:101af00073fc07000001be000a00be008bfb07005c
:101b000090b79f00a1b79f003fb19700cfb197005a
:101b10000200be006afc07000005be0002002000b3
:101b20000304240081fb07001fb19700afb19700a9
:101b30007efb070081027800000267000401be00fe
:101b40003fb09700cfb09700f4b79f0085bf9f00cc
:101b50005bfc0700b0b79f00c1b79f007fb2970042
:101b60008fba97000401be000c00be0054fc0700b1
:101b70000006be0002002000030424007fb297008c
:101b80008fba97000400be005ffb07000a01be0089
:101b90005dfb07000001be001fb09700afb09700cb
:101ba00059fb07005fb39700efb397000601be0033
:101bb00043fc07000001be000c00be005bfb0700f9
:101bc0000005be000001be003fb09700cfb09700f7
:101bd00056fb070081027800000267000200240023
:101be00063f723000400be00f4b79f0085bf9f0089
:101bf00033fc070090b79f00a1b79f00623c220012
:101c0000638f2b007fb297008fba97000400be004d
:101c10002bfc07000006be003fb19700cfb1970034
:101c20007fb297008fba97000400be0036fb070012
:101c30000001be000a00be0033fb0700f28423004f
:101c400063f723001efc07000001be000c00be006d
:101c500036fb0700e2d520008fab9700070141005b
:101c60001201be0031fb0700d0af9f00e1af9f0023
:101c70001fa89700afa897000bfb07000006be0047
:101c800060d620008fa99700030040001005be0019
:101c90005fa99700efa997001fb09700afb097001a
:101ca00022fb07000a01be0020fb07000c01be005a
:101cb0001efb07000001be008300780002006700e1
:101cc0000002be00b4b79f00c5b79f000c01be0064
:101cd0000dfb07000a01be000bfb07001fb19700b8
:101ce000afb1970008fb07000001be005fa8970096
:101cf000efa8970004fb07000005be00cfaa9700dd
:101d000000002f00bfab9700070260000401be0077
:101d10000800be00f4b79f0085bf9f00fafa0700d5
:101d20003fb19700cfb19700e5fb07000006be006a
:101d30000a01be000800be00e1fb07000001be0072
:101d40000c00be00f9fa07000004be003fb1970086
:101d5000cfb197007fb297008fba97000400be0002
:101d6000d7fb07000005be00b0b79f00c1b79f00ba
:101d70000a01be000800be00ecfa07000006be0023
:101d80000003be000000200001302400800f560038
:101d9000818f5e0018003c00800f5600818f5e002e
:101da0001d003a00c2a32a00833323000800be00ae
:101db000dcb79f00e7b79f00dcfa07000002be0017
:101dc0000a01be000c00be00f4b79f0085bf9f0053
:101dd000cdfa07000001be007fb297008fba9700ce
:101de0000400be00040807005fb39700efb397003c
:101df0000000e00029003400a22c2f0093142700db
:101e00007fa897008fb09700adfb0700a22c2f0092
:101e100093142700e00037008701780003f0a10049
:101e20000c0178000000200061312400800f510077
:101e3000818f590011003c000000200061312c000e
:101e4000800f5600818f5e0014003a000a01be0028
:101e50000c00be00dcb79f00e7b79f00aafa07009e
:101e60000001be000800be00e10707005fb3970055
:101e7000efb397000000e00008003c0002262400b9
:101e800023da20007fa897008fb097008cfb070013
:101e90000226240023da2000bf00370087017800e3
:101ea00003f0a100060178006022b80000002000c5
:101eb00001f02300800f5100818f59003a00340057
:101ec0004798de0022f82f000001410000002000aa
:101ed000010820000201e900030033008180d100e5
:101ee0000080d300fbff37000000430081804b00df
:101ef000010678008c01780003f0a100479ade000b
:101f0000cf9ade000401be00f207b1000380b100e9
:101f1000b2b79f00c3b79f00f4ff2f00f507200062
:101f2000bfb197008301e900030033008582d1002f
:101f30000482d300fbff37000482ea008582ea00b6
:101f40008501660000016200fd0720008d02660029
:101f5000000278000570a0003fb7970077001700d7
:101f60000000e900030033008582d1000482d30021
:101f7000fbff3700e00f5300e08f5b0002003d00e5
:101f800060021200e0821a000a00be00f4b79f004f
:101f900085bf9f005cfa0700b0b79f00c1b79f00e4
:101fa0008fba97007fb297003fb19700cfb19700eb
:101fb0000800be00f4b79f0085bf9f005bfa0700d2
:101fc0008106780002002800000661000220270038
:101fd00013f323000c00be0039fb07000005be0010
:101fe0003fb19700cfb197000c00be0046fa070042
:101ff0000001be000800be0043fa0700822127004e
:1020000013f323002efb07000004be00c2e82b00e0
:10201000f35b23000c00be0029fb07000001be009b
:102020000800be0041fa07000006be000001be0025
:102030000a00be003dfa07000004be000a01be000f
:1020400031fa07000001be000c00be002efa0700a6
:10205000b0b79f00c1b79f000801be000800be00d6
:1020600017fb07000005be00c2b42b00133323008a
:1020700013fb0700e2a02e00d35d230022fa070025
:102080000001be000a00be000dfb070052352b0008
:10209000a388230025fa07000001be000a00be0045
:1020a00007fb070012b6200063b3230016fa0700ef
:1020b0000001be000a00be0001fb0700b2aa2a0010
:1020c000a3e2230019fa07000001be000a00be00c7
:1020d000fbfa07000001be000800be000afa070074
:1020e0000005be000001be000800be00f4fa0700b3
:1020f0000006be0002002000030024000a00be000b
:1021000001fa07000001be000c00be0042070700f4
:102110000005be003fb19700cfb197000800be0098
:10212000e7fa07000001be003fb09700cfb097006c
:10213000fef907000001be000a00be00f2f9070028
:102140000801be00f0f907000001be0000002000f9
:1021500001f82300ecf907007fb297008fba9700cf
:10216000c721dd00020020000201400083814800f9
:10217000479bde00cf9bde00e00f5300e08f5b004b
:1021800003003c0004017800140007000001be00b9
:102190007fa897008fb09700c9fa070007003700a3
:1021a0000800200009f82300050037006044b8004b
:1021b000030037000a04be00010037000004be001f
:1021c0000800be004f0778004f06be004f05be0056
:1021d0004f04be004f02b10000000600889fbe0001
:1021e00002047800f9072000890f54000d00340024
:1021f0000200200003f02700b1fa0700f807b10041
:10220000890f5400170034000200200003f027005b
:10221000abfa0700f807b100890f540010003c002a
:102220001000370029f82f00890f54000d003d00e1
:102230000200200003c82000a1fa07006806b000d1
:10224000890f540007003d000200200003c8200051
:102250009bfa07006806b000890f540001003d009a
:1022600009047800f207200008014100cf91de0048
:10227000c711dd000200200091fa07004f04be00e4
:1022800000000600889fbe008a9fbe008c9fbe0093
:102290000004be000400200005f8270085836000cc
:1022a00004037800840f5300858f5b0007003a0019
:1022b0000801be000800be0081fa07000001be0050
:1022c0000800be0099f9070010003700e00f500029
:1022d000e08f58000f003c008101780003f0a1005e
:1022e00000017800e00f5100e08f59006a003200d1
:1022f00010022000706b88000801be000800be00bc
:1023000081f907000001be00c30607000004be00fb
:1023100061003700478cde00cf8cde00e00f5400f8
:10232000e08f5c000f003a006044b8000400370002
:10233000000040008180480061044400e0844c00bb
:10234000040020000508200081816200040178005b
:10235000e00f5100e08f5900f5ff320061041400d6
:10236000e0841c00f807b1000980b1008101780009
:10237000f307b200000178000200be000170a00067
:102380000808a300020032000000400081804800dd
:102390008984d1000884d300000040008180480077
:1023a0009401200002002000031020006055b800b6
:1023b0006066b8000c0341008d834900800f530014
:1023c000818f5b0006003c000606410087864900bd
:1023d00006005000878058000a0541008b8549009f
:1023e00000004000818048008301d1000281d300b9
:1023f0000402e900efff3a00e00f5000e08f5800c0
:102400001b0032000226240023da200000002000f6
:1024100001f823003cf907000200200003f8230024
:10242000750607000000e0001100350002262400b8
:1024300023da20000000200001f823003bf9070008
:102440000200200003f823006b0607000000e000f4
:102450000300340062054500e0854d0004003700ac
:102460006000b800610065000005450081854d00f1
:10247000c744dd00080020000000200001f0230018
:1024800008044000898448008b85d1000a85d30068
:102490000804450089844d000800be004f06be00b8
:1024a0004f05be004f04be00000006000001be0044
:1024b0008300780001f0a10002007800000006000f
:1024c0000000fa00cfb89700688157002c0207007f
:1024d0000080fa000000060051000700a900070074
:1024e0005901070081010700db00370080007800f8
:1024f0001000200002022000828f500004003200f1
:10250000e9805000e48f5000010036000000eb002d
:1025100000000600889fbe008a1f780080047800b3
:102520000904780088047800394578000a00fb0027
:10253000eeff07000000e000f9ff3a00b0c2b30070
:10254000804f550005003200d0c2b3008000eb0080
:10255000804f550005003a00020037008000eb0074
:1025600001003700110020000804e8000000eb0023
:10257000030037006a02b900020052000003b000f5
:102580003801fb0003fd2f0082814100e98f5100db
:10259000f8ff36000100e00001003a000000ea0008
:1025a0004f0578004f04be0000000600889fbe0063
:1025b0000004be000800e00003003a00886b8000c1
:1025c0000800e000130032000800be00920407007b
:1025d000000444001804e00004003a000000eb008e
:1025e000806b8800000478000a0037000800be00f5
:1025f0003804070000004400806b88001004e000ed
:10260000020032000058eb00010037000000eb0030
:10261000806b8800080078004f04be0000000600b0
:10262000ec874700889fbe008a9fbe008c9fbe003b
:102630008e1f7800000678000104780018079000cb
:102640002805900098067800cdb79f00b805900047
:102650003202be002203be000400be000601be001e
:102660004f18de006011b8008000eb00d0b79f006b
:10267000e1b79f00f2b79f0083bf9f0080047800fe
:102680000900e000060032006000b8006011b800e8
:1026900004025000858258000603590087835900c0
:1026a0000e00e000020035000d10a100cdb79f0024
:1026b0000900e00005003a004fb097000028a30091
:1026c00002003a000038a300020032008a00e9004c
:1026d000010037008a007800f8815700a20020002e
:1026e00008007800860007000900e00003003a00b7
:1026f000cfb097000128a300080032000000e900d5
:1027000000814500b1c2b3000900e00001003200c1
:10271000d1c2b30001497800050037000138a30099
:10272000030032000000e90001c2b30081757800a7
:10273000480190000201e90000015100808045003d
:102740004fb297008a0178000c007800a4010700be
:102750009c0090000188a3000400320098009000c3
:10276000810f500001003d00010078004f07780004
:102770004f06be004f05be004f04be00cf00b100a3
:10278000000006000200fa00889fbe008a9fbe007b
:10279000000578000104780002007800180190001c
:1027a000a805900098007800b1bf9f00b804900081
:1027b0000200e000020035000110a100b1bf9f003f
:1027c000ea815700820020008b0078003002be00b2
:1027d0002003be0008007800490007003fb99700b9
:1027e000f0006100030032000000e90001c3b30003
:1027f000817478003fb99700e8006100030032005f
:102800000000e90001c2b300817478004801900023
:102810000201e90000015100808044003fba9700a6
:102820008b0178000a0078006d0107009a00900083
:102830000188a3000400320098009000810f50002e
:1028400001003d00010078004f05be004f04be00ae
:102850000080fa0000000600ea874700889fbe005b
:102860008a9fbe008e1f7800000478000300780065
:102870007287570084e2260055c72600049fbe00d9
:10288000c3962200030f78006c875700004feb00bf
:1028900011059000a1049000910578000200e0006d
:1028a00002003200020778000100370072875700eb
:1028b0000000e00002003a000e007800be030700ae
:1028c0000a00e000030035008a0f500001003600c6
:1028d0000a0078000b027800890178000001780076
:1028e0008e007800080078003d0107004f0778004f
:1028f0004f05be004f04be00af00b100000006004f
:10290000f4874700889fbe008a9fbe008c9fbe0050
:102910008e1f78000605be000404be0081bf9f0024
:1029200082b79f00f3b79f00b0009000e1b79f000f
:102930001301780092b79f00900690004006900027
:102940000c06e9000d00e00001003d001d00200024
:10295000efb197000c8041000048eb001e00200002
:102960001f0037000c06e9000fb09700cf80de0093
:102970006109b900a0b79f00b1b79f00c2b79f001f
:10298000d3b79f000203be000002be000800be00d5
:102990000a01be005107070000077800efb097005a
:1029a0000c80400003c3b300034847008d06e900d4
:1029b0000fb897000000e90080bf9f002fb297007a
:1029c000bfb297004fb39700dfb397000800be0077
:1029d0000a01be003a0707000205be000004be005f
:1029e0000c00e0000d003200e00f5400e08f5c00ae
:1029f000e00f5d00e08f5d00daff3a000d00e000bf
:102a0000d8ff3c008fb897000100e00003003400bd
:102a10001fb197000218a300d2ff3a000e00e00099
:102a200002003a00ffb197001340a1000c007800ab
:102a30004f0778004f06be004f05be004f04be0092
:102a40004f01b100000006000200fa00889fbe009e
:102a50008a9fbe008004780001047800020078009c
:102a6000180190002805900098007800b1bf9f00e1
:102a7000b80590000200e000020035000110a1003e
:102a8000b1bf9f00ea815700a20020008a007800b1
:102a90003002be002003be000800780098ff070047
:102aa000480190000201e9000001510080804500ca
:102ab0003fba97008a01780009007800c800070033
:102ac000990090000188a300040032009800900053
:102ad000810f500001003d00010078004f05be004d
:102ae0004f04be000080fa0000000600fa8747008d
:102af000889fbe008a9fbe008c9fbe008e1f7800fc
:102b000080047800010478008205780018019000a4
:102b10002805900018077800b80090000200e00037
:102b2000020035000e10a100010037001200200045
:102b300070006700e0b79f00090032003b02be0052
:102b40002b03be00e00f5200e08f5a00e00f5b0045
:102b5000e08f5b00020032008a86e9000100370046
:102b60008a067800e8026700f5b79f00010032008e
:102b70008d06e9003b02be002b03be00e4af9f00c0
:102b8000f5af9f0086b79f0097b79f00480690005b
:102b90000c06e9000c8040000048eb00efb2970003
:102ba0007fb297008903780081047800d8af9f0036
:102bb000020478008bbf9f008a05780003457800e7
:102bc0002a0037000c06e9006fab97006f00630026
:102bd000e90f500002003c000003b0000100370084
:102be0007005b0000a03fb001604b100f90f530092
:102bf0000c003e00000378000650a0001606b1004d
:102c0000f90f530007003e00b4b79f00a5b79f001f
:102c1000c7b79f009e030700cfb39700afb29700de
:102c20003fb2970080747e000804e9008d06e90039
:102c30006fa89700ffa897000fb197009fb197006a
:102c4000460020008301d1000281d3008180d3009f
:102c50000080d3000603e900faff3a00e0af9f00ce
:102c6000f1af9f0082b79f0093b79f00e10f56001e
:102c70000f0036006fa89700ffa897000fb19700cc
:102c80009fb19700e00f5000e08f5800e00f59000f
:102c9000e08f5900cbff3a000800e000c9ff3c007c
:102ca0000d00e000020034000e18a300c5ff3a003a
:102cb00089007800f4b79f00870478005fac970024
:102cc0008a4178000b0578008fbd97000500e00071
:102cd000100032003b02be002b03be00e4af9f0099
:102ce000f5af9f0086b79f0097b79f00e00f520097
:102cf000e08f5a00e00f5b00e08f5b0005003200c0
:102d00000c06e90083707e000c06e90000c3b300e6
:102d100080707e00ffb297000500e00003003200e3
:102d20000c06e90000c2b30080707e0048019000ec
:102d30000201e9000c0151008c8040000e02780075
:102d40008a017800090078002500070099009000aa
:102d50000188a3000400320098009000810f500009
:102d600001003d00010078004f0778004f06be00cb
:102d70004f05be004f04be00af01b10000000600c9
:102d80008201780001017800f1ff2700da023700a4
:102d9000889fbe008a1f7800800478004900900058
:102da00002047800800f540001003600000478000f
:102db000080178006a8544001a007800db010700ea
:102dc0001a004400000d7800e8844400990c1400b7
:102dd0000048eb004f0578004f04be0000000600dd
:102de000f2874700889fbe008a9fbe008c9fbe006e
:102df0008e1f7800800478000105780002047800b6
:102e0000830578006107620002003a008b0f5400ce
:102e100008003900080178008a007800090078006d
:102e2000dbff07008b0f5400020039008805780093
:102e30001e003700088655000c017800f00f560080
:102e40000100360002012000010220007e805700b0
:102e5000bd0107008c067800050037000201200044
:102e6000fe80570009007800c9ff0700f086560071
:102e7000ef8f5600f9ff3e004461de0000ff2f0097
:102e80000091b90002014600fe8057000900780059
:102e9000bfff07000e00e00004003a0008017800c0
:102ea0008a00780009007800b9ff07000b0078005d
:102eb0004f0778004f06be004f05be004f04be000e
:102ec0002f01b10000000600000005000000050011
:102ed00000000500000178000040eb008080fb004e
:102ee0008180400003d4200063c278000404e00025
:102ef00003003a0010d4200060c0780000000600f3
:102f000092017800934f520004003a0010d4200040
:102f100060c078000309e800010037000040e800c5
:102f2000ea4f5000edff360000000600f68747002c
:102f3000889fbe008a9fbe008c9fbe008e1f7800b7
:102f40008004780001047800830578000406780086
:102f50000000eb00c0b79f008080eb00d1b79f005e
:102f6000e0b79f00f2b79f000008200080bf9f00dd
:102f700098007800010078000005eb0001003700a0
:102f80000a05e800304178000204e0000300320046
:102f900053c2b300834f5100f9ff3a000a00e0002a
:102fa000040032000a0178000900780078ff070069
:102fb000180c45001807780050c2b3009e4f10004f
:102fc00033013a000e07e8000e0c780010003700bd
:102fd000cfb097000100a0000b003700cfb09700e2
:102fe0000110a00008003700cfb097000120a0001a
:102ff00005003700cfb097000130a0000200370075
:10300000cfb097000140a000c1b79f00000ce800be
:103010001800780090407800b2c2b30082cf500010
:10302000f1ff320007003c0002c2b30082cf500023
:10303000f0ff320032c2b30082cf500007003a00e6
:10304000efff3700d2c2b30082cf5000e0ff320062
:1030500002c3b30082cf5000e0ff3200a2c2b3002f
:1030600082cf50000d003a00000ce8001c80e900ff
:10307000000e780010007800e0b79f000000e0002c
:103080000f003d00cfb097000100a200c1b79f0024
:103090000000ea00e0b79f00090037001dfd0700af
:1030a000e0b79f0001003700000ce800180078002e
:1030b0009000fb000103b100e98f5000faff3600d9
:1030c0004fb097000008a300020032000010a100da
:1030d000c0b79f0018007800e1c2b30090cf100085
:1030e00016003a008000eb00d1b79f000000e80016
:1030f000000c7800a1c2b30090cf100006003a0087
:10310000000ce8001c80e900000e78001000780038
:10311000d0b79f0009003700fefc0700d0b79f0022
:1031200001003700000ce800180078009000fb0058
:103130000103b100e98f5000faff36000800780063
:1031400064ff070080467800180078001000fb003c
:103150004802070091062000810f5000380032001d
:1031600012003c0041062000810f50003400320064
:103170000a003c0011062000810f500020003200a0
:1031800031062000810f50009a00320051022000c9
:10319000810f5000ae003a00a700370071062000f2
:1031a000810f5000aa003c00820037000107200078
:1031b000810f50005c00320007003c00e106200057
:1031c000810f500074003200f1062000810f500082
:1031d0009f003a003900370051072000810f50004e
:1031e0002700320081072000810f5000420032008a
:1031f00031072000810f500095003a00850037000c
:103200008d80fb000c01780000fe2f000f004000b5
:10321000260207000000e0009c0032001800780041
:10322000000ce8009041780002fe2f000f014100e1
:10323000f88057000900780024ff07000e003700cf
:103240008d80fb008c0178001200200000fe2f0012
:103250000f004000340207000000e0008b00320045
:10326000180ce80002fe2f000f014100f880570003
:1032700009007800eafc07000005450084003700db
:103280008d80fb008c0178000001eb0000fe2f0018
:103290000f004000240207000000e0007b00320025
:1032a000180ce80002fe2f000f014100f8805700c3
:1032b00009007800e4fd0700efff37008d80fb0078
:1032c0008c0178000001eb0000fe2f000f00400091
:1032d000150207000000e0006c003200180ce80046
:1032e00002fe2f000f014100f8805700090078000e
:1032f00024fd0700e0ff37008d80fb008c01780083
:103300000001eb0000fe2f000f0040000602070046
:103310000000e0005d00320018007800000ce800ba
:1033200090417800160037008c0178000001eb0016
:10333000010f200000fe2f000f004000fa010700df
:103340000000e00051003200180ce8000fb09700b8
:103350009fb097002fb19700bfb19700e00f5000ca
:10336000e08f5800e00f5900e08f590003003a0049
:103370008001eb00a2d320004000370083c7b300d8
:1033800002fe2f000f014100f8805700090078006d
:10339000d6fd0700b8ff37000b0145008d80fb000c
:1033a0008c01780000fe2f000f004000370207005c
:1033b000360037008d80fb000c01780000fe2f00e6
:1033c0000f004000b90107000000e0002f003200ac
:1033d00018007800000ce8009041780002fe2f00f1
:1033e0000f014100f880570009007800b7fe070080
:1033f000a1ff370000c8b30080cf560023003a0079
:10340000180ce8001c80e900000e780010407800dd
:103410000d00370000c8b30080cf56001b003a00f3
:10342000180ce8001c80e900000e78008001eb0019
:10343000100178001100370001c8b30081cf560099
:1034400012003a00180ce800e0df9f000800370087
:1034500050c2b300e0df9f000e0c78000000eb00cc
:10346000c0b79f00e0b79f008080eb00d1b79f00fe
:1034700013002000e2fd2f000f014100f8805700eb
:1034800009007800f4fc07007bff3700180ce80007
:103490000a0078004f0778004f06be004f05be00b7
:1034a0004f04be006f01b100000006008200fa0068
:1034b000889fbe008a1f780000057800820478008b
:1034c000c13f9f000004eb001000370009027800a4
:1034d00088017800a2f72f000f01410081f72f002b
:1034e0008f8040000a00780090fe0700080040002e
:1034f000880f500004003d00b0042000706b88006d
:103500000084eb0004003700000478004f38970077
:103510001004e000edff3a00080078004f05780045
:103520004f04be000080fa00000006008001780011
:1035300002003700b15978000201e9000200e00002
:10354000fcff3a0000000600889fbe008a9fbe0074
:10355000800478000200e0005a0032000140780048
:10356000814c780082814400f1f99f00e20f510004
:103570005400360091449800a1449800e1f99f005e
:10358000d1f99f00e60f51004e003600b14498007b
:10359000c1f99f00e80f51004a0036000905ea0012
:1035a000630565000a8444000a055100c1ff2f002d
:1035b000010565000080fb008000eb001210200078
:1035c000131020000e020700008cbe000a01440008
:1035d00060b99f0071b99f00e80f550039003600af
:1035e0002004980031049800400498005104980089
:1035f00020b99f0031b99f0040b99f0051b99f0089
:10360000f80f55002f0036006004980071049800f0
:10361000000c9800110c9800200c9800310c9800b8
:10362000400c9800510c980020b19f0031b19f00d0
:1036300040b19f0051b19f0060b19f0071b19f00e8
:1036400000b99f0011b99f00640164007801410036
:1036500002044400020555006011b8000203be00d8
:103660000002be000403be006022b8000000720029
:103670008180720002017300838173000f003700a4
:1036800008027800009abe00029abe00009abe00ae
:103690000292be00000c9800110c9800220c9800b9
:1036a000330c9800400c9800510c9800620c980064
:1036b000730c98000a02b1000802b000ff0f550019
:1036c000efff3e00090078004f05be004f04be002a
:1036d000000006002000fa00889fbe000004be0023
:1036e000994078000104e000030032001940900086
:1036f0000004e00004003a008100fb0008007800ac
:10370000a200070028003700020220008000eb0022
:10371000c0fd2f000f0040008bff0700194078000c
:103720000004e00002003a00880078000e00370034
:103730008904e8000080fb00c400de006f00600028
:10374000120020000010dd0081804000c2fd2f002b
:103750000f014100810041001100700080087800d5
:10376000eeff3a00f0ff37000100780011417800c9
:103770000204e0000c0032008100e8000281fb003e
:10378000ef016100140020000322dd004411de007f
:1037900002014100c5fd2f008f824200e501790042
:1037a00003016200f0ff3200080050004f04be0029
:1037b0000080fa0000000600800078000400370056
:1037c0003104e00002003a00000051000000060051
:1037d000010178000108a300f9ff3a008101780097
:1037e00031017800f4ef2f00020242000281ea006a
:1037f000020162000408280004016100f7ff3200a2
:1038000083007800010178003104e000fdff3a00f8
:1038100000005100000006002000fa000f017800af
:103820000202b1000f0009000019eb00914178007d
:103830000001eb000304e0002c0032001141900075
:103840000204e00005003a008000780001017800e1
:10385000b1cf1100fdff3200230037001141780085
:103860000204e00002003a00800078000e003700f9
:103870008100e8000281fb00c411de006f016100dd
:10388000140020000221dd008381410004fe2f008e
:103890000f02420083014200130171008209780087
:1038a000eeff3a00f0ff3700010178009141780007
:1038b0000304e0000c0032008100e8008381fb007b
:1038c0006f82610015002000842add00c419de002b
:1038d0008381410006fe2f000f03430066827900ba
:1038e00084816200f0ff3a0000015100020078007c
:1038f0000080fa0000000600f28747008e1f780063
:1039000002027800030178000000e00002003200ab
:103910000007780001003700728757008002eb0033
:103920000100e000010032008102e90070805700d0
:10393000060009000018eb007280570000a8eb0099
:103940002310200093bf9f00aebf9f00b1bf9f0018
:10395000c5bf9f000100e00004003d00b00420004e
:10396000706b88000080eb0005003700004feb0013
:10397000eebf9f00debf9f00840078002f0007008d
:103980004f0778002f01b10000000600881f780063
:10399000000478008180fb000a003a0008007800eb
:1039a00085ff070000004400220037001804e000f3
:1039b000200032000804e8001081fb00810f510054
:1039c0001c003200080078000808a300f7ff3a0046
:1039d00014102000048ab90008017800380078002b
:1039e000f5ef2f00808242008081ea00838262002e
:1039f000030828008382620007003a0000006a0082
:103a0000f5ef2f00808242000080ea000080620013
:103a100083016000f0ff3200020078001204e00031
:103a2000040032000201e8009081fb00818f510008
:103a3000f9ff3a004f047800000006000200fa0087
:103a4000881f780000047800e2bf9f00648157005f
:103a50000800780095fe0700980090000148a30038
:103a6000010032000080eb004f0478000080fa0073
:103a700000000600f1fb2f0080804000f98f50000d
:103a800001003e000050a00000000600f9ff3700d2
:103a9000f1f92f0080804000f98f500001003e00b6
:103aa000f005b20000000600f9ff3700881f78001b
:103ab0000004780000082000808f500017003500b7
:103ac00010082000808f50000b00340030082000c8
:103ad000808f500011003a009200780068805000fa
:103ae000000978003002be002003be00049cbe0026
:103af0000694be00070037009202780064805200ee
:103b0000000978001000be009a000700009cbe006b
:103b10000294be0010002000010037000000eb00fe
:103b20004f0478000000060084082000848f5000b5
:103b30001d0032000d003c0014082000848f50004e
:103b40002700320002003c00040820000400370077
:103b500024082000848f50002a00320044082000ee
:103b6000848f500048003a003b003700040a2000d0
:103b7000848f50002c00320004003c000409200017
:103b8000848f500040003a002d003700020c2000c6
:103b9000828f50001e003200020f2000828f5000e2
:103ba00039003a00300037009380e9000200e0005d
:103bb00005003200810978001102fb00cfa2de006f
:103bc000612bb9002d00370081097800114278007f
:103bd0000482fb008002eb006033b800270037004e
:103be00013027800e40052000200e0000a003200f4
:103bf000810978001102be004fabde008603780019
:103c00001e00370093027800e88052000e00370053
:103c100093027800e4805200810978001102be000e
:103c20006033b800150037009380e90081097800ff
:103c300011027800cfa2de00612bb9000f0037001f
:103c400013037800e8005300810978003102be00b8
:103c50002103be00090037009380e9000200e00064
:103c600002003200f1ff37009380e90081097800fb
:103c7000110278008002eb006033b8000498be00a7
:103c80000690be001000050000000500440820005a
:103c9000848f5000270032000a003c0014082000e6
:103ca000848f50001c00320024082000848f5000b4
:103cb0002600320004082000848f50002c003a00b7
:103cc0001c00370004092000848f50001f003200c0
:103cd00004003c0084082000848f500024003a0037
:103ce00007003700040a2000848f500011003200c2
:103cf000040c2000848f50001d003a00060037009d
:103d00009380e9008109780091007800010878002b
:103d100082487800150037009380e9008109780017
:103d20009100780001087800cf91de008288be0003
:103d30000e0037009380e900810978009100780037
:103d40000108780082087800080037009380e900b5
:103d50008109780091007800010878006112b900ab
:103d6000612bb9008498be008690be00100005004b
:103d70000000050081037800cef207000001be00bc
:103d80006000b8000478a30013003a006220e1004c
:103d900015003e000d0039008301d1000281d300df
:103da0008180d3008301d1000281d3008180d300c0
:103db0008301d1000281d3008180d3000538b00097
:103dc000c42add00f300b2008381720007f0a7006f
:103dd00003f0a0000000060083ff2700020020007f
:103de0006110b900f9ff370003ff2700f7ff370024
:103df000140020006d013700f4ff2f006b01370025
:103e0000020ab900001bb9000200b800810042009c
:103e10008100430000000600889fbe008a9fbe000c
:103e20008c9fbe001b0020000202be0005866800b9
:103e300006002800060666004709de00f20fb20001
:103e4000820032000243e80080003200c729de0011
:103e5000f30fb2007d0032000343e8007b00320024
:103e6000f107b2000170a000f507b2000570a000d4
:103e7000c708dd004903de00868070004700dd00d2
:103e8000c72add004923de00868272004722dd005a
:103e900003055100040350008583580003003100de
:103ea00000004000818048000a05e9008c1f78006e
:103eb0008a9fbe0004005000858058000402420022
:103ec00085824a0000004000818048000005eb0028
:103ed0000004be006033b8000406be000d48e100d7
:103ee00056003100110009004dccd8000c01b8007b
:103ef0000d02b8008481410060824a008283530031
:103f000003045c0084845c0060055d000a00e0003e
:103f100025003a00800578000d40e100490031009d
:103f20008800780007007800110009004d88d8004b
:103f30000c01b8000d02b8008481410060824a0083
:103f40006003110083835b0004045c00e0845c0078
:103f50000900e00021003a004f01be000300e0002c
:103f60002b003200e3016000070673008c817100b2
:103f700001003200640070004200de004e5edd0091
:103f80000c007000c258de0001e0a00081000700b4
:103f9000cf017800818071004f06be004f05be0042
:103fa0004f04be00000006008c8343000d044c004b
:103fb000e0844c0060054d000000e9000a00e000cc
:103fc000d4ff32008c8343000d044c00e0844c008d
:103fd00060054d000000e900ceff37000c034300f0
:103fe0008d834b0060044c00e0844c000000e9002d
:103ff0000900e000d8ff32000c0343008d834b0022
:1040000060044c00e0844c000000e900d2ff37005f
:104010004200de004e5edd000c007000c258de0083
:1040200001e0a000cf0178000300e000daff3200d9
:1040300060001000e0801800d7ff3700f0ff2f006d
:10404000aaff3700f0ff2f00b9ff37000404be00bd
:10405000faf30700870678000004fd008104fd00e4
:10406000f6f30700078366000678a300030032001a
:104070000960a7000800be002c0037000d78a300df
:10408000020032000800be00280037000778a300b5
:1040900026003a0001f0a10009f0a1000668a30083
:1040a00003003200f1ff2700f0ff2f00baff3700b6
:1040b0000d68a300030032000800be008c80700071
:1040c000b5ff37000768a30007003a000648a300c1
:1040d00003003200f1ff2700f0ff2f00aeff370092
:1040e0000d48a300030032006000b8008c8070000f
:1040f000a9ff37000748a3000400320001f8270099
:10410000000020008c807000a3ff370074000700bf
:104110000004fd008104fd00020578007000070026
:104120000802be008a01780059ff37000160a00034
:10413000120220007240880097ff37000100e00063
:10414000120032000500e00010003200889fbe001f
:104150008a9fbe008c9fbe000006eb0001f8a30002
:104160000300320060001000e08018000cf0a00096
:1041700005f8a3000300320060021200e0821a007a
:104180000cf0a2008005eb0041ff37006000b80092
:104190000200050081017000270032008002eb0060
:1041a00001f8a3000300320060001000e080180056
:1041b00015002000f4072000020242002000340015
:1041c000f70320008703600006042000000363005b
:1041d00002082000000161004700de00c909dd007f
:1041e00000807100c708de000600e0000800320011
:1041f00087037100060032001000b0000180b0009b
:104200000188a30002003200c108de000402e800b9
:10421000f107b200f30f20000320e10003003d008e
:104220004722dd00810072002900370001f82700d5
:104230000000eb00260037006000b8000000060018
:10424000680212007f20e100020034006000b80024
:104250001f0037006011b8007020e1000400350035
:1042600080017800010078008000eb0070025200ad
:104270000400e00009003400f00312000719dd001b
:104280008419de000703dd00868171000400de0072
:10429000070bdd00060070008408de00f7ff270032
:1042a0008383630087037100060028000303630013
:1042b000070032000700e00003003a0061016000df
:1042c00002817300020032001000b0000180b000d3
:1042d0000500a6000000060001f0a0000000060096
:1042e0004f0ade004709de00f107b200f20fb2000c
:1042f0000b003200f207b1000170a000c708dd001a
:10430000c901de00838070004700dd000400a600c4
:104310000000060060001000e080180000000600a9
:10432000810f700001003a00000006008182cf007a
:104330000500e00010003e008082cf00ee824200c7
:104340007028e1000400390007003e00800078007a
:104350000000eb000e003700708312008600de00c4
:104360000500dd000a003700708352008600dd0082
:104370000000eb0006003700e28252008508dd00f5
:10438000708312000603de00868070000500dd00e9
:104390007507b0000501ea000400a6000000060051
:1043a00060001000e080180000000600889fbe003a
:1043b0008a9fbe00841f7800170007004f00780016
:1043c00011003300f0ff2f00838f6c0006003b00cc
:1043d000040565000a00a7000800370009f0a600e0
:1043e0001000200008003700820f5400838f5c000b
:1043f000030039001000200001003e0000002000f2
:1044000009f0a7000000ea004f05be004f04be00ff
:104410000000e000000006000004be0025f10700d7
:104420000003be000405be000200be0021f107002b
:10443000844f750000000600889fbe008a9fbe0062
:1044400030044200b0844a0030054b0090854b0098
:104450006000b1000898be000a90be000440e10070
:1044600005c8e10006d0e10007d8e10002003100f4
:10447000680040001008e8004f05be004f04be0071
:1044800000000600889fbe008a9fbe003004be0068
:104490002005be000418540005985c0006185d0055
:1044a00007985d00110020000440e10005c8e1000c
:1044b00006d0e10007d8e100010039008000eb00e0
:1044c000108810004f05be004f04be00000006001b
:1044d000f4874700889fbe008a9fbe008c9fbe0065
:1044e0008e1f7800d0b79f00e1b79f00f2b79f0002
:1044f00083bf9f000605be000404be00cfae970038
:104500000000eb00c0b79f00b0b79f00a0b79f00ae
:1045100090b79f0080b79f00000678004fb09700cb
:10452000000140000000e00006003d003c000700e4
:104530000f074700450007000f004000beff0700bf
:1045400005003700360007000f0747003f0007004f
:104550000f004000cbff07004fb797000e00e000b0
:104560000c0035005fb29700efb297007fb3970061
:104570008fbb970010002000010020006011b800e0
:104580000002720081827200020373008383730051
:104590001c0007000c06e80001042000810f5600f3
:1045a000deff3a000e00e00005003d000802be00fc
:1045b0000a03be0000fe2f000f0040009eff070010
:1045c0000d00e00005003a000fb297009fb297007f
:1045d0002fb39700bfb397000a0007005fb09700a2
:1045e000efb097007fb197008fb997004f07780021
:1045f0004f06be004f05be004f04be004f01b10084
:1046000000000600010007000000060094b79f00ac
:10461000a5b79f00b6b79f00c7b79f000000060070
:104620009fb097004f08de0002017000a2b79f0004
:104630000fb097004f01de008180400081007100c3
:1046400091b79f000efe2f0000000600de007800ec
:104650004f09de00000040000000710080b79f009d
:104660006fa897004f01de0081804000010f7100ac
:104670000e0007004f3ade0000004000040070000a
:10468000e0af9f00090007000402420085824a0053
:1046900006034b0087834b00dcff07000802be00c7
:1046a0000a03be0000fe2f00000006001fb29700a4
:1046b000afb297003fb39700cfb39700000006005a
:1046c000881f780018002000881f780080ff0700ee
:1046d0008f87e9004f04780000000600801feb0080
:1046e0007bff07008f87e90000000600889fbe005f
:1046f0008a9fbe00e00f5000e08f5800e00f590085
:10470000e08f59000c003d006044b8006055b800cf
:104710000000540081805c0002015d0083815d0027
:10472000180020001500070008003d0018000700d1
:104730000004eb00050037000004eb000f00070049
:1047400002003d001200070018002000dcff0700f7
:104750000800e000060032006022b8006033b800b4
:104760000000520081805a0002015b0083815b00df
:104770004f05be004f04be0000000600e00f5200cf
:10478000e08f5a00e00f5b00e08f5b000000060046
:104790006044b8006055b8000402540085825c0093
:1047a00006035d0087835d0000000600889fbe0051
:1047b0008a9fbe008c1f7800e00f5000e08f5800e9
:1047c000e00f5900e08f59000d003d006044b80033
:1047d0006055b8000000540081805c0002015d005b
:1047e00083815d001c0020000820e10009a8e10091
:1047f0000ab0e1000bb8e1000d003d0008003700f1
:104800000006eb00e00f5200e08f5a00e00f5b0063
:10481000e08f5b0006003d006044b8006055b800c2
:104820000402540085825c0006035d0087835d00fe
:10483000aaff07000c00e000060032006022b8006a
:104840006033b8000000520081805a0002015b0012
:1048500083815b004f0678004f05be004f04be0009
:04486000000006004e
:020000040000fa
:1048640001000000015e00000306000000060000d5
:10487400052800007c2800007c2800000524000096
:104884002a7f00002a10000003620000184600007e
:10489400053000004c5a00002450000001060000be
:1048a400023c000042020000423c000005280000d7
:1048b400107c0000102800000310000038100000d5
:1048c40001c00000031000001010000001400000af
:1048d4000360000018060000043c0000424200008f
:1048e4003c030000447e00004004000044620000d9
:1048f400524c0000034a00004a340000041e000029
:10490400107c0000100300004e4a00003204000036
:104914003c4a00004a30000003620000120e00000e
:10492400043400004a4a0000340400000c52000021
:10493400523c0000014800000280000068030000af
:104944001028000044030000282800002803000069
:104954004428000010030000025200000c0500006f
:104964003c420000522a00003c0400007c1200007b
:10497400127c0000047e00004a4a00003404000057
:104984003c42000042240000047e00004242000039
:104994003c0300007e4a00004a0300007e0a000037
:1049a4000a0400003c42000052340000047e00006f
:1049b400080800007e030000427e0000420300005d
:1049c400424200003e0400007e0800001462000021
:1049d400037e000040400000057e00000408000043
:1049e400047e0000057e000004180000207e000004
:1049f400043c0000424200003c0400007e1200001f
:104a0400120c0000043c000042420000bc04000000
:104a14007e120000126c0000044400004a4a0000a8
:104a240030030000027e0000020400003e4000004b
:104a3400403e000005060000186000001806000053
:104a4400053e0000403e0000403e000005420000dc
:104a54002418000024420000049e0000a0a00000ce
:104a64007e040000625200004a460000027e0000fc
:104a7400420300000618000060020000427e0000ad
:104a8400032000001020000004800000808000004b
:104a940080020000040800000420000054540000b8
:104aa400780400007e44000044380000043800000c
:104ab400444400002804000038440000447e000000
:104ac4000438000054540000580200007c0a00001e
:104ad40004980000a4a400007c0400007e040000ec
:104ae40004780000017a0000024000003a0400004b
:104af4007e10000028440000017e0000057c0000b8
:104b04000478000004780000047c00000404000021
:104b140078040000384400004438000004fc00001d
:104b240024240000180400001824000024fc0000c1
:104b3400027c0000040400004854000054200000db
:104b4400030400003e440000043c00004040000018
:104b54003c0500000c300000403000000c05000053
:104b64003c4000003c4000003c050000442800009c
:104b740010280000440400009ca00000a07c000059
:104b840003640000544c0000030800003641000098
:104b940001ff00000341000036080000042000006b
:104ba40010200000100000000000000000000000c1
:104bb40000000000000000000000000000000000f1
:104bc40000000000000000000000000000000000e1
:104bd40000000000000000000000000000fe0000d3
:104be4001b000000000000000000000000000000a6
:104bf400000000000000000000000000001e000093
:104c0400000000000000000000000000001e000082
:104c14000000000000000000000000000000000090
:104c24000120000019a00000077800000126000000
:104c340019a00000077800000126000001200000f0
:104c4400010000000000000000000000001c000043
:104c5400182600001042000010ff00003f820000f0
:104c6400110200000f00000000000000001c000002
:104c7400102200000822000004220000039c00000f
:104c8400004000000e300000110800001104000074
:104c9400110200000e00000007800000085c000004
:104ca4001062000010a2000011320000131c00006a
:104cb4001c00000018000000168000000100000025
:104cc400000000000000000000000000001e0000c2
:104cd40000000000000000000000000000000000d0
:104ce40000000000000000000000000000000000c0
:104cf40000e0000007180000180c00003004000059
:104d040020020000400200004000000000000000fb
:104d1400000200004002000040040000200c0000db
:104d24003018000018e00000070000000000000038
:104d3400000000000000000000080000001800004f
:104d440000f00000004e000000f000000018000019
:104d54000008000000000000000000000000000047
:104d640002000000020000000200000002e0000057
:104d74001f0000000200000002000000020000000a
:104d8400020000000000000000000000000000001d
:104d940000000000980000007800000000000000ff
:104da40000000000000000000000000000000000ff
:104db40000000000000000000100000001000000ed
:104dc40001000000010000000100000001000000db
:104dd40000000000000000000000000000000000cf
:104de400000000001800000018000000000000008f
:104df40000000000000000000000000000000000af
:104e04000000000040000000300000000c00000022
:104e140003c0000000300000000c0000000200008d
:104e2400000000000000000000f00000030c00007f
:104e34000c0200001002000010020000100c000020
:104e44000cf000000300000000000000000000005f
:104e540000040000100400001004000010fe000014
:104e64001f000000100000001000000010000000ef
:104e7400000000000000000000060000180200000e
:104e8400140200001202000011c20000103c0000d5
:104e940010000000000000000000000000000000fe
:104ea4000000000000020000104200001042000058
:104eb4001042000010bc00000f00000000000000c1
:104ec400000000000000000003c0000002200000f9
:104ed400021800000204000002fe00001f0000008f
:104ee40002000000020000000000000000000000ba
:104ef40000000000003e000010220000102200000c
:104f040010420000088200000700000000000000ba
:104f1400000000000000000000f00000074c00004a
:104f2400082200001022000010220000104200009d
:104f340008800000070000000000000000000000de
:104f440000020000000200001802000007c2000076
:104f540000320000000a000000060000000000000b
:104f64000000000000000000001c00000fa2000070
:104f7400104200001042000010a2000010a2000025
:104f8400091c0000060000000000000000000000f2
:104f940000780000008400001002000011020000ec
:104fa40011020000118400000cf80000030000004e
:104fb40000000000000000000000000000000000ed
:104fc40000600000186000001800000000000000ed
:104fd40000000000000000000000000000000000cd
:104fe4000000000000000000006000009860000065
:104ff4007800000000000000000000000000000035
:10500400000000000000000000000000000000009c
:10501400030000000380000004800000044000003e
:1050240008400000082000001000000000000000fc
:105034000080000004800000048000000480000060
:10504400048000000480000004800000048000004c
:1050540004000000000000000020000010400000d8
:1050640008400000088000000480000004000000e4
:105074000300000003000000000000000000000026
:10508400000e000000020000000200001b8200006d
:105094000042000000260000001c00000000000088
:1050a4000000000000f00000031800000c040000e1
:1050b40018e2000013120000140a0000168a00000f
:1050c4001bfc0000070000000400000004000000b6
:1050d400100000000e8000000370000002180000a1
:1050e4000230000002c000000200000003000000c3
:1050f4000c0000001000000000f800001f880000f1
:10510400108800001088000010880000104800007b
:10511400113000000e0000000000000000c000007c
:10512400033000000c100000080800001008000004
:105134001008000010080000101800001000000003
:10514400000000000000000000f800001f0800003c
:1051540010080000100800001008000010100000e3
:1051640008e000000700000000000000000000004c
:1051740000f800001f0800001108000011080000da
:1051840011080000110800001108000010000000c0
:10519400000000000000000000f800001f080000ec
:1051a40001080000010800000108000001080000d7
:1051b40001080000000000000000000000000000e2
:1051c40000c00000033000000c10000008080000bc
:1051d4001008000010080000110800001118000059
:1051e4001f0000000000000000f800001f00000085
:1051f40001000000010000000100000001000000a7
:1052040001f800001f000000000000000000000082
:1052140000080000100800001008000010f800004a
:105224001f08000010080000100800001000000013
:10523400000000000000000000000000000000006a
:1052440010080000100800001008000010f800000a
:105254000f0000000000000000000000000000003b
:1052640000f800001f8000000080000001400000e2
:1052740002200000041000000408000008000000e0
:10528400100000000000000000f800001f000000f3
:1052940010000000100000001000000010000000ca
:1052a40010000000100000000000000000f80000e2
:1052b4001f38000000e000000100000007000000ab
:1052c40006c000000138000000f800001f000000c4
:1052d400000000000000000000f800001f100000a3
:1052e40000600000008000000100000006000000d3
:1052f40008f800001f00000000000000000000008b
:1053040000e000000710000008080000100800007a
:1053140010080000100800001010000008e0000051
:10532400070000000000000000f800001f08000053
:1053340001080000010800000108000001880000c5
:1053440000700000000000000000000000000000e9
:1053540000e000000710000008080000100800002a
:1053640010080000100800003010000048e00000a1
:10537400470000000000000000f800001f080000c3
:105384000108000001080000038800000470000008
:1053940008000000100000000000000000000000f1
:1053a40000700000184800001088000010880000f9
:1053b4001008000011080000091800000e00000089
:1053c40000000000000800000008000000080000c1
:1053d4000008000000f800001f080000000800009a
:1053e40000080000000800000000000000000000a9
:1053f40000f8000007000000180000001000000082
:10540400100000001000000008f800000700000071
:1054140000000000000800000030000000c0000090
:105424000100000006000000180000001800000041
:1054340007c0000000300000000800000018000051
:1054440000e00000030000001c0000000fe000006a
:1054540000c00000010000000e0000001ce000007d
:1054640003180000000800001010000008200000cd
:1054740004400000028000000180000001400000a0
:1054840002200000041000000808000010080000ba
:105494000010000000600000008000000000000018
:1054a4001f800000004000000020000000100000e9
:1054b40000080000000000000008000018080000b8
:1054c40014080000120800001188000010480000b1
:1054d4001028000010180000100000000000000058
:1054e400000000000000000000fe00007f02000039
:1054f40040020000400200004002000040000000a2
:10550400000000000000000000020000000c000089
:105514000030000000c00000000000000300000094
:105524000c000000300000004000000000000000fb
:10553400000200004002000040020000400200009f
:1055440040fe00007f00000000000000000000009a
:105554000000000000000000000000000400000043
:1055640003e0000000380000000e0000007000009e
:1055740000800000030000000400000000000000a0
:105584002000000020000000200000002000000097
:105594002000000020000000200000002000000087
:1055a40020000000200000000000000000000000b7
:1055b40000000000000100000002000000000000e4
